:0200000000BF3F
:0200010000BF3E
:0200020000BF3D
:0200030000BF3C
:0200040000BF3B
:0200050000BF3A
:0200060000BF39
:0200070000BF38
:0200080000BF37
:0200090000BF36
:02000A0000BF35
:02000B0000BF34
:02000C0000BF33
:02000D0000BF32
:02000E0000BF31
:02000F0000BF30
:0200100000BF2F
:0200110000BF2E
:0200120000BF2D
:0200130000BF2C
:0200140000BF2B
:0200150000BF2A
:0200160000BF29
:0200170000BF28
:0200180000BF27
:0200190000BF26
:02001A0000BF25
:02001B0000BF24
:02001C0000BF23
:02001D0000BF22
:02001E0000BF21
:02001F0000BF20
:0200200000BF1F
:0200210000BF1E
:0200220000BF1D
:0200230000BF1C
:0200240000BF1B
:0200250000BF1A
:0200260000BF19
:0200270000BF18
:0200280000BF17
:0200290000BF16
:02002A0000BF15
:02002B0000BF14
:02002C0000BF13
:02002D0000BF12
:02002E0000BF11
:02002F0000BF10
:0200300000BF0F
:0200310000B716
:0200320000B616
:02003300006E5D
:02003400006D5D
:02003500005C6D
:02003600005C6C
:02003700005C6B
:02003800005B6B
:02003900005B6A
:02003A00005B69
:02003B00005B68
:02003C00005B67
:02003D0000536E
:02003E0000536D
:02003F00005B64
:0200400000536B
:0200410000526B
:02004200004A72
:02004300004A71
:02004400005268
:02004500005366
:02004600005B5D
:02004700005B5C
:02004800005B5B
:02004900005B5A
:02004A00005B59
:02004B00005B58
:02004C00005B57
:02004D00005B56
:02004E00005B55
:02004F0000535C
:02005000005B53
:02005100005B52
:02005200005B51
:02005300005B50
:02005400005B4F
:02005500005B4E
:02005600005B4D
:02005700005B4C
:02005800005B4B
:02005900005B4A
:02005A00005B49
:02005B00005B48
:02005C00005B47
:02005D00005B46
:02005E00005B45
:02005F00005B44
:02006000005B43
:02006100005B42
:02006200005349
:02006300005249
:02006400005347
:02006500005B3E
:02006600005B3D
:02006700005B3C
:02006800005B3B
:02006900005B3A
:02006A00005B39
:02006B00005B38
:02006C00005B37
:02006D00005B36
:02006E00005B35
:02006F00005B34
:02007000005B33
:02007100005B32
:02007200005B31
:02007300005B30
:02007400005B2F
:02007500005B2E
:02007600005B2D
:02007700005B2C
:02007800005B2B
:02007900005B2A
:02007A00005B29
:02007B00005B28
:02007C00005B27
:02007D00005B26
:02007E0000532D
:02007F0000532C
:0200800000532B
:0200810000532A
:02008200005329
:02008300005328
:02008400005327
:02008500005326
:02008600005325
:02008700005B1C
:02008800005B1B
:02008900005B1A
:02008A00005B19
:02008B00005B18
:02008C0000531F
:02008D0000531E
:02008E0000531D
:02008F00005B14
:0200900000531B
:0200910000531A
:02009200005319
:02009300005318
:02009400005B0F
:02009500005B0E
:02009600005B0D
:02009700005314
:02009800005214
:02009900005213
:02009A00005B09
:02009B00005B08
:02009C00005B07
:02009D0000520F
:02009E0000520E
:02009F00004A15
:0200A00000BF9F
:0200A10000BF9E
:0200A20000BF9D
:0200A30000BF9C
:0200A40000BF9B
:0200A50000BF9A
:0200A60000BF99
:0200A70000BF98
:0200A80000BF97
:0200A90000BF96
:0200AA0000BF95
:0200AB0000BF94
:0200AC0000BF93
:0200AD0000BF92
:0200AE0000BF91
:0200AF0000BF90
:0200B00000BF8F
:0200B10000BF8E
:0200B20000BF8D
:0200B30000BF8C
:0200B40000BF8B
:0200B50000BF8A
:0200B60000BF89
:0200B70000BF88
:0200B80000BF87
:0200B90000BF86
:0200BA0000BF85
:0200BB0000BF84
:0200BC0000BF83
:0200BD0000BF82
:0200BE0000BF81
:0200BF0000BF80
:0200C00000BF7F
:0200C10000BF7E
:0200C20000BF7D
:0200C30000BF7C
:0200C40000BF7B
:0200C50000BF7A
:0200C60000BF79
:0200C70000BF78
:0200C80000BF77
:0200C90000BF76
:0200CA0000BF75
:0200CB0000BF74
:0200CC0000BF73
:0200CD0000BF72
:0200CE0000BF71
:0200CF0000BF70
:0200D00000BF6F
:0200D10000BF6E
:0200D20000BF6D
:0200D30000BF6C
:0200D40000B773
:0200D50000AD7C
:0200D600005CCC
:0200D700005BCC
:0200D800005BCB
:0200D900005BCA
:0200DA00005BC9
:0200DB00005BC8
:0200DC00005BC7
:0200DD00005BC6
:0200DE00005BC5
:0200DF00005BC4
:0200E0000053CB
:0200E1000052CB
:0200E200004AD2
:0200E300004AD1
:0200E4000052C8
:0200E500005BBE
:0200E600005BBD
:0200E700005BBC
:0200E800005BBB
:0200E900005BBA
:0200EA00005BB9
:0200EB00005BB8
:0200EC000053BF
:0200ED000052BF
:0200EE000052BE
:0200EF000053BC
:0200F000005BB3
:0200F100005BB2
:0200F200005BB1
:0200F300005BB0
:0200F400005BAF
:0200F500005BAE
:0200F600005BAD
:0200F700005BAC
:0200F800005BAB
:0200F9000053B2
:0200FA000053B1
:0200FB00005BA8
:0200FC00005BA7
:0200FD00005BA6
:0200FE00005BA5
:0200FF00005BA4
:02010000005BA2
:02010100005BA1
:020102000053A8
:020103000052A8
:020104000053A6
:02010500005B9D
:02010600005B9C
:02010700005B9B
:02010800005B9A
:02010900005B99
:02010A00005B98
:02010B00005B97
:02010C00005B96
:02010D00005B95
:02010E00005B94
:02010F00005B93
:02011000005B92
:02011100005B91
:02011200005B90
:02011300005B8F
:02011400005B8E
:02011500005B8D
:02011600005B8C
:02011700005B8B
:02011800005B8A
:02011900005B89
:02011A00005B88
:02011B00005B87
:02011C00005B86
:02011D0000538D
:02011E0000538C
:02011F0000538B
:0201200000538A
:02012100005389
:02012200005388
:02012300005387
:02012400005386
:02012500005385
:02012600005384
:02012700005383
:02012800005382
:02012900005381
:02012A00005380
:02012B0000537F
:02012C0000537E
:02012D0000537D
:02012E0000537C
:02012F00005B73
:0201300000537A
:02013100005379
:02013200005378
:02013300005377
:02013400005B6E
:02013500005B6D
:02013600005B6C
:02013700005373
:02013800005273
:02013900005272
:02013A00005B68
:02013B00005B67
:02013C0000526F
:02013D0000526E
:02013E00004A75
:02013F00004A74
:0201400000BFFE
:0201410000BFFD
:0201420000BFFC
:0201430000BFFB
:0201440000BFFA
:0201450000BFF9
:0201460000BFF8
:0201470000BFF7
:0201480000BFF6
:0201490000BFF5
:02014A0000BFF4
:02014B0000BFF3
:02014C0000BFF2
:02014D0000BFF1
:02014E0000BFF0
:02014F0000BFEF
:0201500000BFEE
:0201510000BFED
:0201520000BFEC
:0201530000BFEB
:0201540000BFEA
:0201550000BFE9
:0201560000BFE8
:0201570000BFE7
:0201580000BFE6
:0201590000BFE5
:02015A0000BFE4
:02015B0000BFE3
:02015C0000BFE2
:02015D0000BFE1
:02015E0000BFE0
:02015F0000BFDF
:0201600000BFDE
:0201610000BFDD
:0201620000BFDC
:0201630000BFDB
:0201640000BFDA
:0201650000BFD9
:0201660000BFD8
:0201670000BFD7
:0201680000BFD6
:0201690000BFD5
:02016A0000BFD4
:02016B0000BFD3
:02016C0000BFD2
:02016D0000BFD1
:02016E0000BFD0
:02016F0000BFCF
:0201700000BFCE
:0201710000BFCD
:0201720000BFCC
:0201730000BFCB
:0201740000BFCA
:0201750000ADDB
:02017600005C2B
:02017700005333
:02017800005B2A
:02017900005B29
:02017A00005B28
:02017B00005B27
:02017C0000532E
:02017D0000532D
:02017E0000532C
:02017F0000532B
:0201800000532A
:0201810000522A
:02018200004A31
:02018300004A30
:02018400005227
:02018500005325
:02018600005B1C
:02018700005B1B
:02018800005B1A
:02018900005B19
:02018A00005B18
:02018B00005B17
:02018C0000521F
:02018D0000521E
:02018E0000521D
:02018F0000531B
:02019000005B12
:02019100005B11
:02019200005B10
:02019300005B0F
:02019400005B0E
:02019500005B0D
:02019600005B0C
:02019700005B0B
:02019800005B0A
:02019900005B09
:02019A00005B08
:02019B00005B07
:02019C00005C05
:02019D00005C04
:02019E00005C03
:02019F00005C02
:0201A000005B02
:0201A100005B01
:0201A200005B00
:0201A300005208
:0201A400005306
:0201A500005BFD
:0201A600005BFC
:0201A700005BFB
:0201A800005BFA
:0201A900005BF9
:0201AA00005BF8
:0201AB00005BF7
:0201AC00005BF6
:0201AD00005BF5
:0201AE00005BF4
:0201AF00005BF3
:0201B000005BF2
:0201B100005BF1
:0201B200005BF0
:0201B300005BEF
:0201B400005BEE
:0201B500005BED
:0201B600005BEC
:0201B700005BEB
:0201B800005BEA
:0201B900005BE9
:0201BA00005BE8
:0201BB00005BE7
:0201BC00005BE6
:0201BD00005BE5
:0201BE000053EC
:0201BF000053EB
:0201C000005BE2
:0201C100005BE1
:0201C200005BE0
:0201C300005BDF
:0201C400005BDE
:0201C5000053E5
:0201C6000053E4
:0201C700005BDB
:0201C8000053E2
:0201C9000053E1
:0201CA000053E0
:0201CB000053DF
:0201CC000053DE
:0201CD000053DD
:0201CE000053DC
:0201CF00005BD3
:0201D0000053DA
:0201D1000053D9
:0201D2000053D8
:0201D3000053D7
:0201D4000053D6
:0201D5000053D5
:0201D600005BCC
:0201D7000052D4
:0201D8000052D3
:0201D9000052D2
:0201DA000053D0
:0201DB000052D0
:0201DC000052CF
:0201DD000052CE
:0201DE00004AD5
:0201DF000052CC
:0201E00000BF5E
:0201E10000BF5D
:0201E20000BF5C
:0201E30000BF5B
:0201E40000BF5A
:0201E50000BF59
:0201E60000BF58
:0201E70000BF57
:0201E80000BF56
:0201E90000BF55
:0201EA0000BF54
:0201EB0000BF53
:0201EC0000BF52
:0201ED0000BF51
:0201EE0000BF50
:0201EF0000BF4F
:0201F00000BF4E
:0201F10000BF4D
:0201F20000BF4C
:0201F30000BF4B
:0201F40000BF4A
:0201F50000BF49
:0201F60000BF48
:0201F70000BF47
:0201F80000BF46
:0201F90000BF45
:0201FA0000BF44
:0201FB0000BF43
:0201FC0000BF42
:0201FD0000BF41
:0201FE0000BF40
:0201FF0000BF3F
:0202000000BF3D
:0202010000BF3C
:0202020000BF3B
:0202030000BF3A
:0202040000BF39
:0202050000BF38
:0202060000BF37
:0202070000BF36
:0202080000BF35
:0202090000BF34
:02020A0000BF33
:02020B0000BF32
:02020C0000BF31
:02020D0000BF30
:02020E0000BF2F
:02020F0000BF2E
:0202100000BF2D
:0202110000BF2C
:0202120000BF2B
:0202130000BF2A
:0202140000BF29
:0202150000AE39
:02021600005C8A
:02021700005B8A
:02021800005B89
:02021900005B88
:02021A00005B87
:02021B00005B86
:02021C00005B85
:02021D00005B84
:02021E00005B83
:02021F00005B82
:02022000005389
:02022100005289
:02022200004A90
:02022300004A8F
:02022400005286
:02022500005B7C
:02022600005B7B
:02022700005B7A
:02022800005B79
:02022900005B78
:02022A00005B77
:02022B00005B76
:02022C0000527E
:02022D0000527D
:02022E0000527C
:02022F00005B72
:02023000005B71
:02023100005B70
:02023200005B6F
:02023300005B6E
:02023400005B6D
:02023500005B6C
:02023600005B6B
:02023700005B6A
:02023800005B69
:02023900005B68
:02023A00005B67
:02023B00005B66
:02023C00005B65
:02023D00005B64
:02023E00005B63
:02023F00005B62
:02024000005B61
:02024100005B60
:02024200005B5F
:02024300005267
:02024400005365
:02024500005B5C
:02024600005B5B
:02024700005B5A
:02024800005B59
:02024900005B58
:02024A00005B57
:02024B00005B56
:02024C00005B55
:02024D00005B54
:02024E00005B53
:02024F00005B52
:02025000005B51
:02025100005B50
:02025200005B4F
:02025300005B4E
:02025400005B4D
:02025500005B4C
:02025600005B4B
:02025700005B4A
:02025800005B49
:02025900005B48
:02025A00005B47
:02025B00005B46
:02025C00005B45
:02025D00005B44
:02025E0000534B
:02025F0000534A
:02026000005349
:02026100005348
:02026200005347
:02026300005346
:02026400005345
:02026500005344
:02026600005343
:02026700005342
:02026800005B39
:02026900005B38
:02026A00005B37
:02026B00005B36
:02026C0000533D
:02026D0000533C
:02026E0000533B
:02026F00005B32
:02027000005339
:02027100005338
:02027200005337
:02027300005336
:02027400005335
:02027500005334
:02027600005333
:02027700005233
:02027800005232
:02027900005231
:02027A00005230
:02027B0000522F
:02027C0000522E
:02027D00004A35
:02027E00004A34
:02027F0000522B
:0202800000BFBD
:0202810000BFBC
:0202820000BFBB
:0202830000BFBA
:0202840000BFB9
:0202850000BFB8
:0202860000BFB7
:0202870000BFB6
:0202880000BFB5
:0202890000BFB4
:02028A0000BFB3
:02028B0000BFB2
:02028C0000BFB1
:02028D0000BFB0
:02028E0000BFAF
:02028F0000BFAE
:0202900000BFAD
:0202910000BFAC
:0202920000BFAB
:0202930000BFAA
:0202940000BFA9
:0202950000BFA8
:0202960000BFA7
:0202970000BFA6
:0202980000BFA5
:0202990000BFA4
:02029A0000BFA3
:02029B0000BFA2
:02029C0000BFA1
:02029D0000BFA0
:02029E0000BF9F
:02029F0000BF9E
:0202A00000BF9D
:0202A10000BF9C
:0202A20000BF9B
:0202A30000BF9A
:0202A40000BF99
:0202A50000BF98
:0202A60000BF97
:0202A70000BF96
:0202A80000BF95
:0202A90000BF94
:0202AA0000BF93
:0202AB0000BF92
:0202AC0000BF91
:0202AD0000BF90
:0202AE0000BF8F
:0202AF0000BF8E
:0202B00000BF8D
:0202B10000BF8C
:0202B20000BF8B
:0202B30000BF8A
:0202B40000BF89
:0202B50000AE99
:0202B600005CEA
:0202B7000053F2
:0202B800005BE9
:0202B900005CE7
:0202BA00005BE7
:0202BB00005BE6
:0202BC00005BE5
:0202BD00005BE4
:0202BE00005BE3
:0202BF00005BE2
:0202C0000053E9
:0202C1000052E9
:0202C200004AF0
:0202C300004AEF
:0202C4000052E6
:0202C5000053E4
:0202C600005BDB
:0202C700005BDA
:0202C800005BD9
:0202C900005BD8
:0202CA00005BD7
:0202CB00005BD6
:0202CC000052DE
:0202CD0000121D
:0202CE000052DC
:0202CF00005BD2
:0202D000005BD1
:0202D100005BD0
:0202D200005BCF
:0202D300005BCE
:0202D400005BCD
:0202D500005BCC
:0202D600005BCB
:0202D700005BCA
:0202D800005BC9
:0202D900005BC8
:0202DA00005BC7
:0202DB00005BC6
:0202DC00005BC5
:0202DD00005BC4
:0202DE00005BC3
:0202DF00005BC2
:0202E000005BC1
:0202E100005BC0
:0202E200005BBF
:0202E3000052C7
:0202E4000053C5
:0202E500005BBC
:0202E600005BBB
:0202E700005BBA
:0202E800005BB9
:0202E900005BB8
:0202EA00005BB7
:0202EB00005BB6
:0202EC00005BB5
:0202ED00005BB4
:0202EE00005BB3
:0202EF00005BB2
:0202F000005BB1
:0202F100005BB0
:0202F200005BAF
:0202F300005BAE
:0202F400005BAD
:0202F500005BAC
:0202F600005BAB
:0202F700005BAA
:0202F800005BA9
:0202F900005BA8
:0202FA00005BA7
:0202FB00005BA6
:0202FC00005BA5
:0202FD00005BA4
:0202FE00005BA3
:0202FF000053AA
:02030000005BA0
:02030100005B9F
:020302000053A6
:020303000053A5
:020304000053A4
:020305000053A3
:020306000053A2
:020307000053A1
:020308000053A0
:0203090000539F
:02030A0000539E
:02030B0000539D
:02030C0000529D
:02030D0000539B
:02030E0000539A
:02030F00005399
:02031000005398
:02031100005397
:02031200005297
:02031300005296
:02031400005394
:02031500005393
:02031600005392
:02031700005292
:02031800005291
:02031900005290
:02031A0000528F
:02031B0000528E
:02031C0000528D
:02031D0000528C
:02031E0000528B
:02031F0000528A
:0203200000BF1C
:0203210000BF1B
:0203220000BF1A
:0203230000BF19
:0203240000BF18
:0203250000BF17
:0203260000BF16
:0203270000BF15
:0203280000BF14
:0203290000BF13
:02032A0000BF12
:02032B0000BF11
:02032C0000BF10
:02032D0000BF0F
:02032E0000BF0E
:02032F0000BF0D
:0203300000BF0C
:0203310000BF0B
:0203320000BF0A
:0203330000BF09
:0203340000BF08
:0203350000BF07
:0203360000BF06
:0203370000BF05
:0203380000BF04
:0203390000BF03
:02033A0000BF02
:02033B0000BF01
:02033C0000BF00
:02033D0000BFFF
:02033E0000BFFE
:02033F0000BFFD
:0203400000BFFC
:0203410000BFFB
:0203420000BFFA
:0203430000BFF9
:0203440000BFF8
:0203450000BFF7
:0203460000BFF6
:0203470000BFF5
:0203480000BFF4
:0203490000BFF3
:02034A0000BFF2
:02034B0000BFF1
:02034C0000BFF0
:02034D0000BFEF
:02034E0000BFEE
:02034F0000BFED
:0203500000BFEC
:0203510000BFEB
:0203520000BFEA
:0203530000BFE9
:0203540000BFE8
:0203550000ADF9
:02035600005352
:02035700005351
:02035800005B48
:02035900005B47
:02035A00005B46
:02035B00005B45
:02035C00005B44
:02035D00005B43
:02035E00005B42
:02035F00005B41
:02036000005249
:02036100005248
:02036200000990
:0203630000494F
:02036400005245
:02036500005343
:02036600005B3A
:02036700005B39
:02036800005B38
:02036900005B37
:02036A00005B36
:02036B0000533D
:02036C0000523D
:02036D0000523C
:02036E0000523B
:02036F00005339
:02037000005B30
:02037100005B2F
:02037200005B2E
:02037300005C2C
:02037400005B2C
:02037500005B2B
:02037600005B2A
:02037700005B29
:02037800005B28
:02037900005B27
:02037A00005B26
:02037B00005B25
:02037C00005B24
:02037D00005B23
:02037E00005B22
:02037F00005B21
:02038000005B20
:02038100005B1F
:02038200005B1E
:02038300005226
:02038400005324
:02038500005B1B
:02038600005B1A
:02038700005B19
:02038800005B18
:02038900005B17
:02038A00005B16
:02038B00005B15
:02038C00005B14
:02038D00005B13
:02038E00005B12
:02038F00005B11
:02039000005B10
:02039100005B0F
:02039200005B0E
:02039300005B0D
:02039400005B0C
:02039500005B0B
:02039600005B0A
:02039700005B09
:02039800005B08
:02039900005B07
:02039A00005B06
:02039B00005B05
:02039C00005B04
:02039D00005B03
:02039E00005B02
:02039F00005B01
:0203A000005B00
:0203A100005BFF
:0203A200005BFE
:0203A300005BFD
:0203A400005304
:0203A500005303
:0203A600005302
:0203A700005301
:0203A800005300
:0203A9000053FF
:0203AA000053FE
:0203AB000053FD
:0203AC000053FC
:0203AD000053FB
:0203AE00005BF2
:0203AF00005BF1
:0203B000005BF0
:0203B100005BEF
:0203B2000053F6
:0203B3000053F5
:0203B4000053F4
:0203B500005BEB
:0203B6000053F2
:0203B7000052F2
:0203B8000052F1
:0203B9000052F0
:0203BA00005BE6
:0203BB000053ED
:0203BC000053EC
:0203BD000052EC
:0203BE000052EB
:0203BF000052EA
:0203C00000BF7C
:0203C10000BF7B
:0203C20000BF7A
:0203C30000BF79
:0203C40000BF78
:0203C50000BF77
:0203C60000BF76
:0203C70000BF75
:0203C80000BF74
:0203C90000BF73
:0203CA0000BF72
:0203CB0000BF71
:0203CC0000BF70
:0203CD0000BF6F
:0203CE0000BF6E
:0203CF0000BF6D
:0203D00000BF6C
:0203D10000BF6B
:0203D20000BF6A
:0203D30000BF69
:0203D40000BF68
:0203D50000BF67
:0203D60000BF66
:0203D70000BF65
:0203D80000BF64
:0203D90000BF63
:0203DA0000BF62
:0203DB0000BF61
:0203DC0000BF60
:0203DD0000BF5F
:0203DE0000BF5E
:0203DF0000BF5D
:0203E00000BF5C
:0203E10000BF5B
:0203E20000BF5A
:0203E30000BF59
:0203E40000BF58
:0203E50000BF57
:0203E60000BF56
:0203E70000BF55
:0203E80000BF54
:0203E90000BF53
:0203EA0000BF52
:0203EB0000BF51
:0203EC0000BF50
:0203ED0000BF4F
:0203EE0000BF4E
:0203EF0000BF4D
:0203F00000BF4C
:0203F10000BF4B
:0203F20000BF4A
:0203F30000BF49
:0203F40000B750
:0203F5000065A1
:0203F6000012F3
:0203F700000AFA
:0203F8000052B1
:0203F9000052B0
:0203FA000052AF
:0203FB000052AE
:0203FC00004AB5
:0203FD00004AB4
:0203FE000052AB
:0203FF000052AA
:020400000052A8
:02040100004AAF
:02040200004AAE
:02040300004AAD
:020404000052A4
:020405000052A3
:020406000052A2
:020407000052A1
:020408000052A0
:0204090000529F
:02040A0000529E
:02040B00004AA5
:02040C00000AE4
:02040D00000AE3
:02040E0000529A
:02040F00005299
:02041000005298
:02041100005396
:02041200005395
:02041300005394
:02041400005393
:02041500005392
:02041600005391
:02041700005390
:0204180000538F
:0204190000538E
:02041A00005B85
:02041B00005B84
:02041C00005B83
:02041D00005B82
:02041E00005B81
:02041F00005B80
:02042000005B7F
:02042100005B7E
:02042200005385
:02042300005285
:02042400005383
:02042500005B7A
:02042600005B79
:02042700005B78
:02042800005B77
:02042900005B76
:02042A00005B75
:02042B00005B74
:02042C00005B73
:02042D00005B72
:02042E00005379
:02042F00005378
:02043000005B6F
:02043100005B6E
:02043200005B6D
:02043300005B6C
:02043400005B6B
:02043500005B6A
:02043600005B69
:02043700005B68
:02043800005B67
:02043900005B66
:02043A00005B65
:02043B00005B64
:02043C00005B63
:02043D00005B62
:02043E00005B61
:02043F00005B60
:02044000005B5F
:02044100005B5E
:02044200005B5D
:02044300005B5C
:02044400005B5B
:02044500005B5A
:02044600005B59
:02044700005B58
:0204480000535F
:0204490000535E
:02044A0000535D
:02044B0000535C
:02044C00005B53
:02044D00005B52
:02044E00005B51
:02044F00005B50
:02045000005B4F
:02045100005B4E
:02045200005B4D
:02045300005354
:02045400005353
:02045500005B4A
:02045600005351
:02045700005251
:02045800005250
:0204590000524F
:02045A00005B45
:02045B0000534C
:02045C0000534B
:02045D0000524B
:02045E0000524A
:02045F00005249
:0204600000BFDB
:0204610000BFDA
:0204620000BFD9
:0204630000BFD8
:0204640000BFD7
:0204650000BFD6
:0204660000BFD5
:0204670000BFD4
:0204680000BFD3
:0204690000BFD2
:02046A0000BFD1
:02046B0000BFD0
:02046C0000BFCF
:02046D0000BFCE
:02046E0000BFCD
:02046F0000BFCC
:0204700000BFCB
:0204710000BFCA
:0204720000BFC9
:0204730000BFC8
:0204740000BFC7
:0204750000BFC6
:0204760000BFC5
:0204770000BFC4
:0204780000BFC3
:0204790000BFC2
:02047A0000BFC1
:02047B0000BFC0
:02047C0000BFBF
:02047D0000BFBE
:02047E0000BFBD
:02047F0000BFBC
:0204800000BFBB
:0204810000BFBA
:0204820000BFB9
:0204830000BFB8
:0204840000BFB7
:0204850000BFB6
:0204860000BFB5
:0204870000BFB4
:0204880000BFB3
:0204890000BFB2
:02048A0000BFB1
:02048B0000BFB0
:02048C0000BFAF
:02048D0000BFAE
:02048E0000BFAD
:02048F0000BFAC
:0204900000BFAB
:0204910000BFAA
:0204920000BFA9
:0204930000BFA8
:0204940000BFA7
:02049500006500
:02049600005311
:02049700005211
:02049800005210
:0204990000520F
:02049A0000520E
:02049B0000520D
:02049C0000520C
:02049D00004A13
:02049E00004A12
:02049F00005209
:0204A000004A10
:0204A100004A0F
:0204A20000490F
:0204A300004A0D
:0204A400005204
:0204A500005203
:0204A600005202
:0204A700005201
:0204A800005200
:0204A9000052FF
:0204AA00000A46
:0204AB00000A45
:0204AC00000945
:0204AD00000944
:0204AE00000A42
:0204AF00000A41
:0204B000000A40
:0204B100000A3F
:0204B200004AFE
:0204B300004AFD
:0204B4000052F4
:0204B5000052F3
:0204B6000052F2
:0204B700004AF9
:0204B8000052F0
:0204B9000052EF
:0204BA000052EE
:0204BB000052ED
:0204BC000052EC
:0204BD000052EB
:0204BE000052EA
:0204BF000052E9
:0204C0000052E8
:0204C1000052E7
:0204C2000052E6
:0204C300004AED
:0204C4000052E4
:0204C5000052E3
:0204C6000052E2
:0204C7000052E1
:0204C8000052E0
:0204C9000052DF
:0204CA000052DE
:0204CB000052DD
:0204CC000052DC
:0204CD000052DB
:0204CE000052DA
:0204CF000052D9
:0204D0000052D8
:0204D1000052D7
:0204D2000052D6
:0204D3000052D5
:0204D4000052D4
:0204D5000052D3
:0204D6000052D2
:0204D7000052D1
:0204D8000052D0
:0204D9000052CF
:0204DA000052CE
:0204DB000052CD
:0204DC000052CC
:0204DD000052CB
:0204DE000052CA
:0204DF000052C9
:0204E0000053C7
:0204E1000052C7
:0204E2000052C6
:0204E3000052C5
:0204E4000052C4
:0204E5000052C3
:0204E6000052C2
:0204E7000052C1
:0204E8000052C0
:0204E9000052BF
:0204EA000052BE
:0204EB000052BD
:0204EC000052BC
:0204ED000052BB
:0204EE000053B9
:0204EF000053B8
:0204F0000053B7
:0204F1000052B7
:0204F2000052B6
:0204F3000052B5
:0204F4000053B3
:0204F5000053B2
:0204F6000053B1
:0204F7000052B1
:0204F8000052B0
:0204F9000052AF
:0204FA000052AE
:0204FB000052AD
:0204FC000052AC
:0204FD000052AB
:0204FE000052AA
:0204FF000052A9
:0205000000BF3A
:0205010000BF39
:0205020000BF38
:0205030000BF37
:0205040000BF36
:0205050000BF35
:0205060000BF34
:0205070000BF33
:0205080000BF32
:0205090000BF31
:02050A0000BF30
:02050B0000BF2F
:02050C0000BF2E
:02050D0000BF2D
:02050E0000BF2C
:02050F0000BF2B
:0205100000BF2A
:0205110000BF29
:0205120000BF28
:0205130000BF27
:0205140000BF26
:0205150000BF25
:0205160000BF24
:0205170000BF23
:0205180000BF22
:0205190000BF21
:02051A0000BF20
:02051B0000BF1F
:02051C0000BF1E
:02051D0000BF1D
:02051E0000BF1C
:02051F0000BF1B
:0205200000BF1A
:0205210000BF19
:0205220000BF18
:0205230000BF17
:0205240000BF16
:0205250000BF15
:0205260000BF14
:0205270000BF13
:0205280000BF12
:0205290000BF11
:02052A0000BF10
:02052B0000BF0F
:02052C0000BF0E
:02052D0000BF0D
:02052E0000BF0C
:02052F0000BF0B
:0205300000BF0A
:0205310000BF09
:0205320000BF08
:0205330000BF07
:0205340000BF06
:0205350000655F
:02053600005B68
:0205370000536F
:0205380000536E
:0205390000536D
:02053A0000536C
:02053B0000536B
:02053C0000536A
:02053D00005369
:02053E00005368
:02053F00005367
:02054000005267
:02054100004A6E
:02054200004A6D
:0205430000496D
:02054400005263
:02054500005262
:02054600005360
:0205470000535F
:0205480000535E
:0205490000535D
:02054A0000535C
:02054B0000525C
:02054C00000AA3
:02054D00000AA2
:02054E00001299
:02054F00001298
:02055000005257
:02055100005256
:02055200005255
:02055300005353
:02055400005352
:02055500005351
:02055600005350
:0205570000534F
:0205580000534E
:0205590000534D
:02055A0000534C
:02055B0000534B
:02055C0000534A
:02055D00005349
:02055E00005348
:02055F00005347
:02056000005346
:02056100005246
:02056200005245
:02056300004A4C
:02056400005243
:02056500005242
:02056600005241
:02056700005240
:0205680000523F
:0205690000523E
:02056A0000523D
:02056B0000523C
:02056C0000523B
:02056D0000523A
:02056E00005239
:02056F00005238
:02057000005237
:02057100005236
:02057200005235
:02057300005234
:02057400005233
:02057500005232
:02057600005231
:02057700005230
:0205780000522F
:0205790000522E
:02057A0000522D
:02057B0000522C
:02057C0000522B
:02057D0000522A
:02057E00005229
:02057F00005228
:02058000005227
:02058100005226
:02058200005225
:02058300005224
:02058400005223
:02058500005222
:02058600005221
:02058700005220
:0205880000521F
:0205890000521E
:02058A0000521D
:02058B0000521C
:02058C0000521B
:02058D0000521A
:02058E00005219
:02058F00005218
:02059000005217
:02059100005216
:02059200005215
:02059300005214
:02059400005213
:02059500005212
:02059600005211
:02059700005210
:02059800004918
:0205990000520E
:02059A0000520D
:02059B0000520C
:02059C0000520B
:02059D00004A12
:02059E00004A11
:02059F00004A10
:0205A00000BF9A
:0205A10000BF99
:0205A20000BF98
:0205A30000BF97
:0205A40000BF96
:0205A50000BF95
:0205A60000BF94
:0205A70000BF93
:0205A80000BF92
:0205A90000BF91
:0205AA0000BF90
:0205AB0000BF8F
:0205AC0000BF8E
:0205AD0000BF8D
:0205AE0000BF8C
:0205AF0000BF8B
:0205B00000BF8A
:0205B10000BF89
:0205B20000BF88
:0205B30000BF87
:0205B40000BF86
:0205B50000BF85
:0205B60000BF84
:0205B70000BF83
:0205B80000BF82
:0205B90000BF81
:0205BA0000BF80
:0205BB0000BF7F
:0205BC0000BF7E
:0205BD0000BF7D
:0205BE0000BF7C
:0205BF0000BF7B
:0205C00000BF7A
:0205C10000BF79
:0205C20000BF78
:0205C30000BF77
:0205C40000BF76
:0205C50000BF75
:0205C60000BF74
:0205C70000BF73
:0205C80000BF72
:0205C90000BF71
:0205CA0000BF70
:0205CB0000BF6F
:0205CC0000BF6E
:0205CD0000BF6D
:0205CE0000BF6C
:0205CF0000BF6B
:0205D00000BF6A
:0205D10000BF69
:0205D20000BF68
:0205D30000BF67
:0205D40000B76E
:0205D5000065BF
:0205D600005BC8
:0205D7000053CF
:0205D8000053CE
:0205D9000053CD
:0205DA000053CC
:0205DB000053CB
:0205DC000053CA
:0205DD000053C9
:0205DE000053C8
:0205DF000053C7
:0205E0000052C7
:0205E100004ACE
:0205E200004ACD
:0205E3000049CD
:0205E4000052C3
:0205E5000052C2
:0205E6000053C0
:0205E7000053BF
:0205E8000053BE
:0205E9000053BD
:0205EA000053BC
:0205EB000052BC
:0205EC00000A03
:0205ED00000A02
:0205EE000012F9
:0205EF000012F8
:0205F0000012F7
:0205F1000052B6
:0205F2000053B4
:0205F3000053B3
:0205F4000053B2
:0205F5000053B1
:0205F6000053B0
:0205F7000053AF
:0205F8000053AE
:0205F9000053AD
:0205FA000053AC
:0205FB000053AB
:0205FC000053AA
:0205FD000053A9
:0205FE000053A8
:0205FF000053A7
:020600000053A5
:020601000052A5
:020602000052A4
:02060300004AAB
:020604000052A2
:020605000053A0
:0206060000539F
:0206070000539E
:0206080000539D
:0206090000539C
:02060A0000539B
:02060B0000539A
:02060C00005399
:02060D00005398
:02060E00005397
:02060F00005396
:02061000005395
:02061100005394
:02061200005393
:02061300005392
:02061400005391
:02061500005390
:0206160000538F
:0206170000538E
:0206180000538D
:0206190000538C
:02061A0000538B
:02061B0000538A
:02061C00005389
:02061D00005388
:02061E00005387
:02061F00005386
:02062000005385
:02062100005384
:02062200005383
:02062300005382
:02062400005381
:02062500005281
:02062600005280
:0206270000527F
:0206280000527E
:0206290000527D
:02062A0000527C
:02062B0000527B
:02062C0000527A
:02062D00005279
:02062E00005278
:02062F00005277
:02063000005276
:02063100005275
:02063200005274
:02063300005273
:02063400005272
:02063500005271
:02063600005270
:0206370000526F
:02063800004A76
:0206390000526D
:02063A0000526C
:02063B0000526B
:02063C0000526A
:02063D00005269
:02063E00004A70
:02063F00004A6F
:0206400000BFF9
:0206410000BFF8
:0206420000BFF7
:0206430000BFF6
:0206440000BFF5
:0206450000BFF4
:0206460000BFF3
:0206470000BFF2
:0206480000BFF1
:0206490000BFF0
:02064A0000BFEF
:02064B0000BFEE
:02064C0000BFED
:02064D0000BFEC
:02064E0000BFEB
:02064F0000BFEA
:0206500000BFE9
:0206510000BFE8
:0206520000BFE7
:0206530000BFE6
:0206540000BFE5
:0206550000BFE4
:0206560000BFE3
:0206570000BFE2
:0206580000BFE1
:0206590000BFE0
:02065A0000BFDF
:02065B0000BFDE
:02065C0000BFDD
:02065D0000BFDC
:02065E0000BFDB
:02065F0000BFDA
:0206600000BFD9
:0206610000BFD8
:0206620000BFD7
:0206630000BFD6
:0206640000BFD5
:0206650000BFD4
:0206660000BFD3
:0206670000BFD2
:0206680000BFD1
:0206690000BFD0
:02066A0000BFCF
:02066B0000BFCE
:02066C0000BFCD
:02066D0000BFCC
:02066E0000BFCB
:02066F0000BFCA
:0206700000BFC9
:0206710000BFC8
:0206720000BFC7
:0206730000BFC6
:0206740000B7CD
:0206750000651E
:02067600005B27
:0206770000532E
:0206780000532D
:0206790000532C
:02067A0000532B
:02067B0000532A
:02067C00005329
:02067D00005328
:02067E00005327
:02067F00005326
:02068000005226
:02068100004A2D
:02068200004A2C
:0206830000492C
:02068400005222
:02068500005221
:0206860000531F
:0206870000531E
:0206880000531D
:0206890000531C
:02068A0000531B
:02068B0000521B
:02068C00000A62
:02068D00000A61
:02068E00001258
:02068F00001257
:02069000001256
:02069100005215
:02069200005313
:02069300005312
:02069400005311
:02069500005310
:0206960000530F
:0206970000530E
:0206980000530D
:0206990000530C
:02069A0000530B
:02069B0000530A
:02069C00005309
:02069D00005308
:02069E00005307
:02069F00005306
:0206A000005305
:0206A100005205
:0206A200005204
:0206A300005203
:0206A400005202
:0206A500005300
:0206A6000053FF
:0206A7000053FE
:0206A8000053FD
:0206A9000053FC
:0206AA000053FB
:0206AB000053FA
:0206AC000053F9
:0206AD000053F8
:0206AE000053F7
:0206AF000053F6
:0206B0000053F5
:0206B1000053F4
:0206B2000053F3
:0206B3000053F2
:0206B4000053F1
:0206B5000053F0
:0206B6000053EF
:0206B7000053EE
:0206B8000053ED
:0206B9000053EC
:0206BA000053EB
:0206BB000053EA
:0206BC000053E9
:0206BD000053E8
:0206BE000053E7
:0206BF000053E6
:0206C0000053E5
:0206C1000053E4
:0206C2000053E3
:0206C3000053E2
:0206C4000052E2
:0206C5000052E1
:0206C6000052E0
:0206C7000052DF
:0206C8000052DE
:0206C9000052DD
:0206CA000052DC
:0206CB000052DB
:0206CC000052DA
:0206CD000052D9
:0206CE000052D8
:0206CF000052D7
:0206D0000052D6
:0206D1000052D5
:0206D2000052D4
:0206D3000052D3
:0206D4000052D2
:0206D5000052D1
:0206D6000052D0
:0206D7000052CF
:0206D800004AD6
:0206D9000052CD
:0206DA000052CC
:0206DB000052CB
:0206DC000052CA
:0206DD000052C9
:0206DE00004AD0
:0206DF000049D0
:0206E00000BF59
:0206E10000BF58
:0206E20000BF57
:0206E30000BF56
:0206E40000BF55
:0206E50000BF54
:0206E60000BF53
:0206E70000BF52
:0206E80000BF51
:0206E90000BF50
:0206EA0000BF4F
:0206EB0000BF4E
:0206EC0000BF4D
:0206ED0000BF4C
:0206EE0000BF4B
:0206EF0000BF4A
:0206F00000BF49
:0206F10000BF48
:0206F20000BF47
:0206F30000BF46
:0206F40000BF45
:0206F50000BF44
:0206F60000BF43
:0206F70000BF42
:0206F80000BF41
:0206F90000BF40
:0206FA0000BF3F
:0206FB0000BF3E
:0206FC0000BF3D
:0206FD0000BF3C
:0206FE0000BF3B
:0206FF0000BF3A
:0207000000BF38
:0207010000BF37
:0207020000BF36
:0207030000BF35
:0207040000BF34
:0207050000BF33
:0207060000BF32
:0207070000BF31
:0207080000BF30
:0207090000BF2F
:02070A0000BF2E
:02070B0000BF2D
:02070C0000BF2C
:02070D0000BF2B
:02070E0000BF2A
:02070F0000BF29
:0207100000BF28
:0207110000BF27
:0207120000BF26
:0207130000BF25
:0207140000B72C
:02071500006D75
:02071600005B86
:0207170000538D
:0207180000538C
:0207190000538B
:02071A0000538A
:02071B00005389
:02071C00005388
:02071D00005387
:02071E00005386
:02071F00005385
:02072000005285
:02072100004A8C
:02072200004A8B
:0207230000498B
:02072400005281
:02072500005280
:0207260000537E
:0207270000537D
:0207280000537C
:0207290000537B
:02072A0000537A
:02072B0000527A
:02072C00000AC1
:02072D00000AC0
:02072E000012B7
:02072F000012B6
:020730000012B5
:020731000012B4
:02073200005372
:02073300005371
:02073400005370
:0207350000536F
:0207360000536E
:0207370000536D
:0207380000536C
:0207390000536B
:02073A0000536A
:02073B00005369
:02073C00005368
:02073D00005367
:02073E00005366
:02073F00005365
:02074000005364
:02074100005363
:02074200005263
:02074300004A6A
:02074400005261
:0207450000535F
:0207460000525F
:0207470000525E
:0207480000535C
:0207490000535B
:02074A0000535A
:02074B00005359
:02074C00005358
:02074D00005357
:02074E00005356
:02074F00005355
:02075000005354
:02075100005353
:02075200005352
:02075300005351
:02075400005350
:0207550000534F
:0207560000534E
:0207570000534D
:0207580000534C
:0207590000534B
:02075A0000534A
:02075B00005349
:02075C00005348
:02075D00005347
:02075E00005346
:02075F00005345
:02076000005344
:02076100005343
:02076200005342
:02076300005341
:02076400005241
:02076500005240
:0207660000523F
:0207670000523E
:0207680000523D
:0207690000523C
:02076A0000523B
:02076B0000523A
:02076C00005239
:02076D00005238
:02076E00005237
:02076F00005236
:02077000005235
:02077100005234
:02077200005233
:02077300005232
:02077400005231
:02077500005230
:0207760000522F
:0207770000522E
:02077800004A35
:0207790000522C
:02077A0000522B
:02077B0000522A
:02077C00005229
:02077D00005228
:02077E00004930
:02077F0000096F
:0207800000BFB8
:0207810000BFB7
:0207820000BFB6
:0207830000BFB5
:0207840000BFB4
:0207850000BFB3
:0207860000BFB2
:0207870000BFB1
:0207880000BFB0
:0207890000BFAF
:02078A0000BFAE
:02078B0000BFAD
:02078C0000BFAC
:02078D0000BFAB
:02078E0000BFAA
:02078F0000BFA9
:0207900000BFA8
:0207910000BFA7
:0207920000BFA6
:0207930000BFA5
:0207940000BFA4
:0207950000BFA3
:0207960000BFA2
:0207970000BFA1
:0207980000BFA0
:0207990000BF9F
:02079A0000BF9E
:02079B0000BF9D
:02079C0000BF9C
:02079D0000BF9B
:02079E0000BF9A
:02079F0000BF99
:0207A00000BF98
:0207A10000BF97
:0207A20000BF96
:0207A30000BF95
:0207A40000BF94
:0207A50000BF93
:0207A60000BF92
:0207A70000BF91
:0207A80000BF90
:0207A90000BF8F
:0207AA0000BF8E
:0207AB0000BF8D
:0207AC0000BF8C
:0207AD0000BF8B
:0207AE0000BF8A
:0207AF0000BF89
:0207B00000BF88
:0207B10000BF87
:0207B20000B78E
:0207B30000B78D
:0207B40000B78C
:0207B500006DD5
:0207B600005BE6
:0207B7000053ED
:0207B8000053EC
:0207B9000053EB
:0207BA000053EA
:0207BB000053E9
:0207BC000053E8
:0207BD000053E7
:0207BE000053E6
:0207BF000053E5
:0207C0000052E5
:0207C100004AEC
:0207C20000092C
:0207C3000049EB
:0207C4000052E1
:0207C5000052E0
:0207C6000053DE
:0207C7000053DD
:0207C8000053DC
:0207C9000053DB
:0207CA000053DA
:0207CB000052DA
:0207CC00000A21
:0207CD00001218
:0207CE00001217
:0207CF00001216
:0207D000000A1D
:0207D100000A1C
:0207D2000052D3
:0207D3000053D1
:0207D4000053D0
:0207D5000053CF
:0207D6000053CE
:0207D7000053CD
:0207D8000053CC
:0207D9000053CB
:0207DA000053CA
:0207DB000053C9
:0207DC000053C8
:0207DD000053C7
:0207DE000053C6
:0207DF000053C5
:0207E0000053C4
:0207E1000053C3
:0207E2000052C3
:0207E300004ACA
:0207E4000052C1
:0207E5000053BF
:0207E6000053BE
:0207E7000053BD
:0207E8000053BC
:0207E9000053BB
:0207EA000053BA
:0207EB000053B9
:0207EC000053B8
:0207ED000053B7
:0207EE000053B6
:0207EF000053B5
:0207F0000053B4
:0207F1000053B3
:0207F2000053B2
:0207F3000053B1
:0207F4000053B0
:0207F5000053AF
:0207F6000053AE
:0207F7000053AD
:0207F8000053AC
:0207F9000053AB
:0207FA000053AA
:0207FB000053A9
:0207FC000053A8
:0207FD000053A7
:0207FE000053A6
:0207FF000053A5
:020800000053A3
:020801000053A2
:020802000053A1
:020803000053A0
:0208040000539F
:0208050000539E
:0208060000539D
:0208070000529D
:0208080000529C
:0208090000529B
:02080A0000529A
:02080B00005299
:02080C00005298
:02080D00005297
:02080E00005296
:02080F00005295
:02081000005294
:02081100005392
:02081200005391
:02081300005291
:02081400005290
:0208150000528F
:0208160000528E
:0208170000528D
:02081800004A94
:0208190000528B
:02081A0000528A
:02081B00005289
:02081C00005288
:02081D00005287
:02081E00004A8E
:02081F000009CE
:0208200000BF17
:0208210000BF16
:0208220000BF15
:0208230000BF14
:0208240000BF13
:0208250000BF12
:0208260000BF11
:0208270000BF10
:0208280000BF0F
:0208290000BF0E
:02082A0000BF0D
:02082B0000BF0C
:02082C0000BF0B
:02082D0000BF0A
:02082E0000BF09
:02082F0000BF08
:0208300000BF07
:0208310000BF06
:0208320000BF05
:0208330000BF04
:0208340000BF03
:0208350000BF02
:0208360000BF01
:0208370000BF00
:0208380000BFFF
:0208390000BFFE
:02083A0000BFFD
:02083B0000BFFC
:02083C0000BFFB
:02083D0000BFFA
:02083E0000BFF9
:02083F0000BFF8
:0208400000BFF7
:0208410000BFF6
:0208420000BFF5
:0208430000BFF4
:0208440000BFF3
:0208450000BFF2
:0208460000BFF1
:0208470000BFF0
:0208480000BFEF
:0208490000BFEE
:02084A0000BFED
:02084B0000BFEC
:02084C0000BFEB
:02084D0000BFEA
:02084E0000BFE9
:02084F0000BFE8
:0208500000BFE7
:0208510000B7EE
:0208520000B7ED
:0208530000B7EC
:0208540000B7EB
:0208550000ADF4
:0208560000534D
:0208570000534C
:0208580000534B
:0208590000534A
:02085A00005349
:02085B00005348
:02085C00005347
:02085D00005346
:02085E00005345
:02085F00005344
:02086000005244
:02086100005243
:0208620000098B
:0208630000098A
:02086400005141
:0208650000523F
:0208660000533D
:0208670000533C
:0208680000533B
:0208690000533A
:02086A00005339
:02086B00005239
:02086C00001278
:02086D00001277
:02086E00001276
:02086F00001275
:02087000000A7C
:02087100000A7B
:02087200005232
:02087300005330
:0208740000532F
:0208750000532E
:0208760000532D
:0208770000532C
:0208780000532B
:0208790000532A
:02087A00005329
:02087B00005328
:02087C00005327
:02087D00005326
:02087E00005325
:02087F00005324
:02088000005323
:02088100005322
:02088200005222
:02088300004A29
:02088400005220
:0208850000531E
:0208860000531D
:0208870000531C
:0208880000531B
:0208890000531A
:02088A00005319
:02088B00005318
:02088C00005317
:02088D00005316
:02088E00005315
:02088F00005314
:02089000005313
:02089100005312
:02089200005311
:02089300005310
:0208940000530F
:0208950000530E
:0208960000530D
:0208970000530C
:0208980000530B
:0208990000530A
:02089A00005309
:02089B00005308
:02089C00005307
:02089D00005306
:02089E00005305
:02089F00005304
:0208A000005303
:0208A100005302
:0208A200005301
:0208A300005300
:0208A4000053FF
:0208A5000053FE
:0208A6000052FE
:0208A7000052FD
:0208A8000052FC
:0208A9000052FB
:0208AA000052FA
:0208AB000052F9
:0208AC000052F8
:0208AD000053F6
:0208AE000053F5
:0208AF000052F5
:0208B0000052F4
:0208B1000053F2
:0208B2000052F2
:0208B3000052F1
:0208B4000052F0
:0208B5000052EF
:0208B6000052EE
:0208B7000052ED
:0208B8000052EC
:0208B9000052EB
:0208BA000052EA
:0208BB000052E9
:0208BC000052E8
:0208BD000052E7
:0208BE000049EF
:0208BF0000092E
:0208C00000BF77
:0208C10000BF76
:0208C20000BF75
:0208C30000BF74
:0208C40000BF73
:0208C50000BF72
:0208C60000BF71
:0208C70000BF70
:0208C80000BF6F
:0208C90000BF6E
:0208CA0000BF6D
:0208CB0000BF6C
:0208CC0000BF6B
:0208CD0000BF6A
:0208CE0000BF69
:0208CF0000BF68
:0208D00000BF67
:0208D10000BF66
:0208D20000BF65
:0208D30000BF64
:0208D40000BF63
:0208D50000BF62
:0208D60000BF61
:0208D70000BF60
:0208D80000BF5F
:0208D90000BF5E
:0208DA0000BF5D
:0208DB0000BF5C
:0208DC0000BF5B
:0208DD0000BF5A
:0208DE0000BF59
:0208DF0000BF58
:0208E00000BF57
:0208E10000BF56
:0208E20000BF55
:0208E30000BF54
:0208E40000BF53
:0208E50000BF52
:0208E60000BF51
:0208E70000BF50
:0208E80000BF4F
:0208E90000BF4E
:0208EA0000BF4D
:0208EB0000BF4C
:0208EC0000BF4B
:0208ED0000BF4A
:0208EE0000BF49
:0208EF0000BF48
:0208F00000BF47
:0208F10000BF46
:0208F20000B74D
:0208F30000B74C
:0208F40000B74B
:0208F50000AD54
:0208F6000053AD
:0208F7000053AC
:0208F8000053AB
:0208F9000053AA
:0208FA000053A9
:0208FB000053A8
:0208FC000053A7
:0208FD000053A6
:0208FE000053A5
:0208FF000053A4
:020900000052A3
:020901000052A2
:020902000009EA
:020903000009E9
:020904000049A8
:0209050000529E
:0209060000529D
:0209070000539B
:0209080000539A
:0209090000529A
:02090A00005398
:02090B00005298
:02090C000012D7
:02090D000012D6
:02090E000012D5
:02090F000012D4
:02091000000ADB
:02091100000ADA
:02091200005291
:0209130000538F
:0209140000538E
:0209150000538D
:0209160000538C
:0209170000538B
:0209180000538A
:02091900005389
:02091A00005388
:02091B00005387
:02091C00005386
:02091D00005385
:02091E00005384
:02091F00005383
:02092000005382
:02092100005381
:02092200005281
:02092300004A88
:0209240000527F
:0209250000537D
:0209260000537C
:0209270000537B
:0209280000537A
:02092900005379
:02092A00005378
:02092B00005377
:02092C00005376
:02092D00005375
:02092E00005374
:02092F00005373
:02093000005372
:02093100005371
:02093200005370
:0209330000536F
:0209340000536E
:0209350000536D
:0209360000536C
:0209370000536B
:0209380000536A
:02093900005369
:02093A00005368
:02093B00005367
:02093C00005366
:02093D00005365
:02093E00005364
:02093F00005363
:02094000005362
:02094100005361
:02094200005360
:0209430000535F
:0209440000535E
:0209450000535D
:0209460000525D
:0209470000525C
:0209480000525B
:02094900005359
:02094A00005358
:02094B00005258
:02094C00005356
:02094D00005355
:02094E00005354
:02094F00005353
:02095000005253
:02095100005252
:02095200005251
:02095300005250
:0209540000524F
:0209550000524E
:0209560000524D
:0209570000524C
:0209580000524B
:0209590000524A
:02095A00005249
:02095B00005248
:02095C00005247
:02095D00005246
:02095E0000494E
:02095F0000098D
:0209600000BFD6
:0209610000BFD5
:0209620000BFD4
:0209630000BFD3
:0209640000BFD2
:0209650000BFD1
:0209660000BFD0
:0209670000BFCF
:0209680000BFCE
:0209690000BFCD
:02096A0000BFCC
:02096B0000BFCB
:02096C0000BFCA
:02096D0000BFC9
:02096E0000BFC8
:02096F0000BFC7
:0209700000BFC6
:0209710000BFC5
:0209720000BFC4
:0209730000BFC3
:0209740000BFC2
:0209750000BFC1
:0209760000BFC0
:0209770000BFBF
:0209780000BFBE
:0209790000BFBD
:02097A0000BFBC
:02097B0000BFBB
:02097C0000BFBA
:02097D0000BFB9
:02097E0000BFB8
:02097F0000BFB7
:0209800000BFB6
:0209810000BFB5
:0209820000BFB4
:0209830000BFB3
:0209840000BFB2
:0209850000BFB1
:0209860000BFB0
:0209870000BFAF
:0209880000BFAE
:0209890000BFAD
:02098A0000BFAC
:02098B0000BFAB
:02098C0000BFAA
:02098D0000BFA9
:02098E0000BFA8
:02098F0000BFA7
:0209900000BFA6
:0209910000BFA5
:0209920000B7AC
:0209930000B7AB
:0209940000B7AA
:02099500006DF3
:02099600005B04
:0209970000530B
:0209980000530A
:02099900005309
:02099A00005308
:02099B00005307
:02099C00005306
:02099D00005305
:02099E00005304
:02099F00005303
:0209A000005203
:0209A100004A0A
:0209A20000094A
:0209A300000949
:0209A400004908
:0209A5000052FE
:0209A6000052FD
:0209A7000052FC
:0209A8000052FB
:0209A9000052FA
:0209AA000053F8
:0209AB000053F7
:0209AC00001237
:0209AD00001236
:0209AE00001235
:0209AF00001234
:0209B000000A3B
:0209B100000A3A
:0209B2000052F1
:0209B3000053EF
:0209B4000053EE
:0209B5000053ED
:0209B6000053EC
:0209B7000053EB
:0209B8000053EA
:0209B9000053E9
:0209BA000053E8
:0209BB000053E7
:0209BC000053E6
:0209BD000053E5
:0209BE000053E4
:0209BF000053E3
:0209C0000053E2
:0209C1000053E1
:0209C2000052E1
:0209C300004AE8
:0209C4000052DF
:0209C5000053DD
:0209C6000053DC
:0209C7000053DB
:0209C8000053DA
:0209C9000053D9
:0209CA000053D8
:0209CB000053D7
:0209CC000053D6
:0209CD000053D5
:0209CE000053D4
:0209CF000053D3
:0209D0000053D2
:0209D1000053D1
:0209D2000053D0
:0209D3000053CF
:0209D4000053CE
:0209D5000053CD
:0209D6000053CC
:0209D7000053CB
:0209D8000053CA
:0209D9000053C9
:0209DA000053C8
:0209DB000053C7
:0209DC000053C6
:0209DD000053C5
:0209DE000053C4
:0209DF000053C3
:0209E0000053C2
:0209E1000053C1
:0209E2000053C0
:0209E3000053BF
:0209E4000053BE
:0209E5000053BD
:0209E6000053BC
:0209E7000053BB
:0209E8000053BA
:0209E9000053B9
:0209EA000053B8
:0209EB000053B7
:0209EC000053B6
:0209ED000053B5
:0209EE000053B4
:0209EF000053B3
:0209F0000052B3
:0209F1000052B2
:0209F2000052B1
:0209F3000052B0
:0209F4000052AF
:0209F5000052AE
:0209F6000053AC
:0209F7000052AC
:0209F8000052AB
:0209F9000052AA
:0209FA000052A9
:0209FB000052A8
:0209FC000052A7
:0209FD00004AAE
:0209FE000009EE
:0209FF000009ED
:020A0000005C98
:020A010000648F
:020A020000658D
:020A030000658C
:020A0400006E82
:020A050000AE41
:020A060000B638
:020A070000B736
:020A080000B735
:020A090000BF2C
:020A0A0000BF2B
:020A0B0000BF2A
:020A0C0000BF29
:020A0D0000BF28
:020A0E0000BF27
:020A0F0000BF26
:020A100000BF25
:020A110000BF24
:020A120000BF23
:020A130000BF22
:020A140000BF21
:020A150000BF20
:020A160000BF1F
:020A170000BF1E
:020A180000BF1D
:020A190000BF1C
:020A1A0000BF1B
:020A1B0000BF1A
:020A1C0000BF19
:020A1D0000BF18
:020A1E0000BF17
:020A1F0000BF16
:020A200000BF15
:020A210000BF14
:020A220000BF13
:020A230000BF12
:020A240000BF11
:020A250000BF10
:020A260000BF0F
:020A270000BF0E
:020A280000BF0D
:020A290000BF0C
:020A2A0000BF0B
:020A2B0000BF0A
:020A2C0000BF09
:020A2D0000BF08
:020A2E0000BF07
:020A2F0000BF06
:020A300000BF05
:020A310000B70C
:020A320000B70B
:020A330000B70A
:020A340000B709
:020A350000655A
:020A360000536B
:020A370000536A
:020A3800005369
:020A3900005368
:020A3A00005367
:020A3B00005366
:020A3C00005365
:020A3D00005364
:020A3E00005363
:020A3F00005362
:020A4000005262
:020A4100005261
:020A42000009A9
:020A43000009A8
:020A4400004967
:020A450000525D
:020A460000525C
:020A470000525B
:020A480000525A
:020A4900005259
:020A4A00005357
:020A4B00005257
:020A4C00000A9E
:020A4D00001295
:020A4E00001294
:020A4F00001293
:020A5000001292
:020A5100000A99
:020A5200005250
:020A530000534E
:020A540000534D
:020A550000534C
:020A560000534B
:020A570000534A
:020A5800005349
:020A5900005348
:020A5A00005347
:020A5B00005346
:020A5C00005345
:020A5D00005344
:020A5E00005343
:020A5F00005342
:020A6000005341
:020A6100005340
:020A6200005240
:020A630000523F
:020A640000523E
:020A650000533C
:020A660000533B
:020A670000533A
:020A6800005339
:020A6900005338
:020A6A00005337
:020A6B00005336
:020A6C00005335
:020A6D00005334
:020A6E00005333
:020A6F00005332
:020A7000005331
:020A7100005330
:020A720000532F
:020A730000532E
:020A740000532D
:020A750000532C
:020A760000532B
:020A770000532A
:020A7800005329
:020A7900005328
:020A7A00005327
:020A7B00005326
:020A7C00005325
:020A7D00005324
:020A7E00005323
:020A7F00005322
:020A8000005321
:020A8100005320
:020A820000531F
:020A830000531E
:020A840000531D
:020A850000531C
:020A860000531B
:020A870000531A
:020A8800005319
:020A8900005318
:020A8A00005317
:020A8B00005316
:020A8C00005315
:020A8D00005314
:020A8E00005313
:020A8F00005312
:020A9000005212
:020A9100005211
:020A9200005210
:020A930000520F
:020A940000530D
:020A950000530C
:020A960000530B
:020A970000520B
:020A980000520A
:020A9900005209
:020A9A00005307
:020A9B00005207
:020A9C00005206
:020A9D00004A0D
:020A9E0000094D
:020A9F0000094C
:020AA000001341
:020AA100001340
:020AA20000133F
:020AA30000133E
:020AA40000133D
:020AA50000133C
:020AA60000133B
:020AA70000133A
:020AA800001B31
:020AA900001C2F
:020AAA000064E6
:020AAB000065E4
:020AAC00006DDB
:020AAD00006ED9
:020AAE0000B690
:020AAF0000B78E
:020AB00000B78D
:020AB10000B78C
:020AB20000BF83
:020AB30000BF82
:020AB40000BF81
:020AB50000BF80
:020AB60000BF7F
:020AB70000BF7E
:020AB80000BF7D
:020AB90000BF7C
:020ABA0000BF7B
:020ABB0000BF7A
:020ABC0000BF79
:020ABD0000BF78
:020ABE0000BF77
:020ABF0000BF76
:020AC00000BF75
:020AC10000BF74
:020AC20000BF73
:020AC30000BF72
:020AC40000BF71
:020AC50000BF70
:020AC60000BF6F
:020AC70000BF6E
:020AC80000BF6D
:020AC90000BF6C
:020ACA0000BF6B
:020ACB0000BF6A
:020ACC0000BF69
:020ACD0000BF68
:020ACE0000BF67
:020ACF0000B76E
:020AD00000B76D
:020AD10000B76C
:020AD20000B76B
:020AD30000B76A
:020AD40000B769
:020AD5000065BA
:020AD6000052CC
:020AD7000052CB
:020AD8000053C9
:020AD9000053C8
:020ADA000053C7
:020ADB000053C6
:020ADC000053C5
:020ADD000053C4
:020ADE000053C3
:020ADF000053C2
:020AE0000052C2
:020AE1000052C1
:020AE200000909
:020AE300000908
:020AE4000052BE
:020AE5000052BD
:020AE6000052BC
:020AE7000052BB
:020AE8000053B9
:020AE9000053B8
:020AEA000053B7
:020AEB000052B7
:020AEC00000AFE
:020AED000012F5
:020AEE000012F4
:020AEF000012F3
:020AF0000012F2
:020AF100000AF9
:020AF2000052B0
:020AF3000053AE
:020AF4000053AD
:020AF5000053AC
:020AF6000053AB
:020AF7000053AA
:020AF8000053A9
:020AF9000053A8
:020AFA000053A7
:020AFB000053A6
:020AFC000053A5
:020AFD000053A4
:020AFE000053A3
:020AFF000053A2
:020B00000053A0
:020B010000539F
:020B020000529F
:020B030000529E
:020B040000529D
:020B050000539B
:020B060000539A
:020B0700005399
:020B0800005B90
:020B0900005397
:020B0A00005396
:020B0B00005395
:020B0C00005394
:020B0D00005393
:020B0E00005392
:020B0F00005391
:020B1000005390
:020B110000538F
:020B120000538E
:020B130000538D
:020B140000538C
:020B150000538B
:020B160000538A
:020B170000528A
:020B1800005289
:020B1900005288
:020B1A00005386
:020B1B00005385
:020B1C00005384
:020B1D00005383
:020B1E00005382
:020B1F00005381
:020B2000005380
:020B210000537F
:020B220000537E
:020B230000537D
:020B240000537C
:020B250000537B
:020B260000537A
:020B2700005379
:020B2800005378
:020B2900005377
:020B2A00005376
:020B2B00005375
:020B2C00005374
:020B2D00005373
:020B2E00005372
:020B2F00005272
:020B3000005271
:020B3100005270
:020B320000526F
:020B330000536D
:020B340000536C
:020B350000536B
:020B360000536A
:020B370000526A
:020B3800005269
:020B3900005268
:020B3A00005366
:020B3B00005266
:020B3C00005265
:020B3D00005264
:020B3E000009AC
:020B3F000009AB
:020B40000013A0
:020B410000139F
:020B420000139E
:020B430000139D
:020B440000139C
:020B450000139B
:020B460000139A
:020B4700001399
:020B4800001398
:020B4900001298
:020B4A00001297
:020B4B00001296
:020B4C00001394
:020B4D00001393
:020B4E00001392
:020B4F00001391
:020B5000001B88
:020B5100001C86
:020B5200005C45
:020B530000643C
:020B540000653A
:020B5500006D31
:020B560000AEEF
:020B570000B6E6
:020B580000B7E4
:020B590000B7E3
:020B5A0000BFDA
:020B5B0000BFD9
:020B5C0000BFD8
:020B5D0000BFD7
:020B5E0000FF96
:020B5F0000FF95
:020B600000BFD4
:020B610000BFD3
:020B620000BFD2
:020B630000BFD1
:020B640000BFD0
:020B650000BFCF
:020B660000BFCE
:020B670000BFCD
:020B680000BFCC
:020B690000BFCB
:020B6A0000BFCA
:020B6B0000BFC9
:020B6C0000BFC8
:020B6D0000BFC7
:020B6E0000BFC6
:020B6F0000BFC5
:020B700000B7CC
:020B710000B7CB
:020B720000B7CA
:020B730000B7C9
:020B740000B7C8
:020B7500006519
:020B760000126B
:020B770000522A
:020B7800005229
:020B7900005228
:020B7A00005326
:020B7B00005325
:020B7C00005324
:020B7D00005323
:020B7E00005322
:020B7F00005321
:020B8000005221
:020B8100005220
:020B8200000968
:020B8300000967
:020B840000521D
:020B850000521C
:020B860000521B
:020B870000521A
:020B8800005318
:020B8900005317
:020B8A00005316
:020B8B00005216
:020B8C00000A5D
:020B8D00001254
:020B8E00001253
:020B8F00001252
:020B9000001251
:020B9100000A58
:020B920000520F
:020B930000530D
:020B940000530C
:020B950000530B
:020B960000530A
:020B9700005309
:020B9800005308
:020B9900005307
:020B9A00005306
:020B9B00005305
:020B9C00005304
:020B9D00005303
:020B9E00005302
:020B9F00005301
:020BA000005300
:020BA1000053FF
:020BA2000052FF
:020BA3000052FE
:020BA4000052FD
:020BA5000053FB
:020BA6000053FA
:020BA7000053F9
:020BA8000053F8
:020BA9000053F7
:020BAA000053F6
:020BAB000053F5
:020BAC000053F4
:020BAD000053F3
:020BAE000053F2
:020BAF000053F1
:020BB0000053F0
:020BB1000053EF
:020BB2000053EE
:020BB3000053ED
:020BB4000053EC
:020BB5000053EB
:020BB6000053EA
:020BB7000052EA
:020BB8000052E9
:020BB9000052E8
:020BBA000052E7
:020BBB000053E5
:020BBC000053E4
:020BBD000053E3
:020BBE000053E2
:020BBF000053E1
:020BC0000053E0
:020BC1000053DF
:020BC2000053DE
:020BC3000053DD
:020BC4000053DC
:020BC5000053DB
:020BC6000053DA
:020BC7000053D9
:020BC8000053D8
:020BC9000053D7
:020BCA000053D6
:020BCB000053D5
:020BCC000053D4
:020BCD000053D3
:020BCE000052D3
:020BCF000052D2
:020BD0000052D1
:020BD1000052D0
:020BD2000053CE
:020BD3000053CD
:020BD4000053CC
:020BD5000053CB
:020BD6000053CA
:020BD7000052CA
:020BD8000052C9
:020BD9000052C8
:020BDA000053C6
:020BDB000053C5
:020BDC000052C5
:020BDD000052C4
:020BDE0000090C
:020BDF0000090B
:020BE000001201
:020BE1000013FF
:020BE2000013FE
:020BE3000013FD
:020BE4000013FC
:020BE5000013FB
:020BE6000013FA
:020BE7000013F9
:020BE8000013F8
:020BE9000013F7
:020BEA000013F6
:020BEB000013F5
:020BEC000013F4
:020BED000013F3
:020BEE000012F3
:020BEF000012F2
:020BF0000013F0
:020BF1000013EF
:020BF2000012EF
:020BF3000012EE
:020BF4000012ED
:020BF5000012EC
:020BF6000013EA
:020BF7000013E9
:020BF8000013E8
:020BF900001BDF
:020BFA00005C9D
:020BFB00005C9C
:020BFC00006592
:020BFD00006591
:020BFE00006D88
:020BFF0000AE46
:020C000000B63C
:020C010000B73A
:020C020000B739
:020C030000BF30
:020C040000BF2F
:020C050000BF2E
:020C060000BF2D
:020C070000BF2C
:020C080000BF2B
:020C090000BF2A
:020C0A0000BF29
:020C0B0000BF28
:020C0C0000BF27
:020C0D0000BF26
:020C0E0000BF25
:020C0F0000B72C
:020C100000B72B
:020C110000B72A
:020C120000B729
:020C130000B728
:020C140000B727
:020C1500006578
:020C1600005389
:020C1700004A91
:020C1800005288
:020C1900005287
:020C1A00005385
:020C1B00005384
:020C1C00005383
:020C1D00005382
:020C1E00005381
:020C1F00005380
:020C2000005280
:020C210000527F
:020C22000009C7
:020C23000009C6
:020C240000527C
:020C250000527B
:020C260000527A
:020C2700005279
:020C2800005377
:020C2900005376
:020C2A00005375
:020C2B00005275
:020C2C00000ABC
:020C2D000012B3
:020C2E000012B2
:020C2F000012B1
:020C30000012B0
:020C3100000AB7
:020C320000526E
:020C330000536C
:020C340000536B
:020C350000536A
:020C3600005369
:020C3700005368
:020C3800005367
:020C3900005366
:020C3A00005365
:020C3B00005364
:020C3C00005363
:020C3D00005362
:020C3E00005361
:020C3F00005360
:020C400000535F
:020C410000535E
:020C420000525E
:020C430000525D
:020C440000525C
:020C450000535A
:020C4600005359
:020C4700005358
:020C4800005B4F
:020C4900005C4D
:020C4A00005C4C
:020C4B00005C4B
:020C4C00005B4B
:020C4D00005352
:020C4E00005351
:020C4F00005350
:020C500000534F
:020C510000534E
:020C520000534D
:020C530000534C
:020C540000534B
:020C550000534A
:020C5600005349
:020C5700005249
:020C5800005248
:020C5900005247
:020C5A00005345
:020C5B00005344
:020C5C00005343
:020C5D00005342
:020C5E00005341
:020C5F00005340
:020C600000533F
:020C610000533E
:020C620000533D
:020C630000533C
:020C640000533B
:020C650000533A
:020C6600005339
:020C6700005338
:020C6800005337
:020C6900005336
:020C6A00005335
:020C6B00005334
:020C6C00005333
:020C6D00005332
:020C6E00005232
:020C6F00005231
:020C7000005230
:020C710000532E
:020C720000532D
:020C730000532C
:020C740000532B
:020C750000532A
:020C7600005329
:020C7700005229
:020C7800005228
:020C7900005227
:020C7A00005325
:020C7B00005324
:020C7C00005323
:020C7D00005223
:020C7E0000096B
:020C7F0000096A
:020C8000000A68
:020C8100000A67
:020C8200000A66
:020C8300000A65
:020C8400000A64
:020C8500000A63
:020C8600000A62
:020C8700000A61
:020C8800000A60
:020C8900000A5F
:020C8A00000A5E
:020C8B00001255
:020C8C00001254
:020C8D00001253
:020C8E00001252
:020C8F00001251
:020C9000001250
:020C910000124F
:020C920000124E
:020C930000124D
:020C940000124C
:020C950000124B
:020C960000124A
:020C9700001249
:020C9800001248
:020C9900001247
:020C9A00000A4E
:020C9B00001245
:020C9C00000A4C
:020C9D00001243
:020C9E00001242
:020C9F00001241
:020CA00000133F
:020CA10000133E
:020CA200001B35
:020CA300005CF3
:020CA400005CF2
:020CA5000064E9
:020CA6000065E7
:020CA700006DDE
:020CA800006EDC
:020CA900006EDB
:020CAA0000B692
:020CAB0000B790
:020CAC0000B78F
:020CAD0000B78E
:020CAE0000B78D
:020CAF0000BF84
:020CB00000BF83
:020CB10000B78A
:020CB20000B789
:020CB30000B788
:020CB40000B787
:020CB500006DD0
:020CB6000053E9
:020CB700004AF1
:020CB800004AF0
:020CB9000052E7
:020CBA000052E6
:020CBB000053E4
:020CBC000053E3
:020CBD000053E2
:020CBE000053E1
:020CBF000053E0
:020CC0000052E0
:020CC1000052DF
:020CC200000927
:020CC300000926
:020CC400004AE4
:020CC5000052DB
:020CC6000052DA
:020CC7000052D9
:020CC8000052D8
:020CC9000053D6
:020CCA000053D5
:020CCB000052D5
:020CCC00000A1C
:020CCD00001213
:020CCE00001212
:020CCF00001211
:020CD000001210
:020CD100000A17
:020CD20000120E
:020CD3000053CC
:020CD4000053CB
:020CD5000053CA
:020CD6000053C9
:020CD7000053C8
:020CD8000053C7
:020CD9000053C6
:020CDA000053C5
:020CDB000053C4
:020CDC000053C3
:020CDD000053C2
:020CDE000053C1
:020CDF000053C0
:020CE0000053BF
:020CE1000053BE
:020CE2000052BE
:020CE3000052BD
:020CE4000052BC
:020CE5000053BA
:020CE600005BB1
:020CE700005BB0
:020CE800005CAE
:020CE90000A465
:020CEA0000A563
:020CEB0000AD5A
:020CEC0000A561
:020CED00005CA9
:020CEE000053B1
:020CEF000053B0
:020CF0000053AF
:020CF1000053AE
:020CF2000053AD
:020CF300005BA4
:020CF400005BA3
:020CF500005BA2
:020CF600005BA1
:020CF7000052A9
:020CF8000052A8
:020CF9000052A7
:020CFA000053A5
:020CFB000053A4
:020CFC000053A3
:020CFD000053A2
:020CFE000053A1
:020CFF000053A0
:020D000000539E
:020D010000539D
:020D020000539C
:020D030000539B
:020D040000539A
:020D0500005399
:020D0600005398
:020D0700005397
:020D0800005396
:020D0900005395
:020D0A00005394
:020D0B00005393
:020D0C00005392
:020D0D00005292
:020D0E00005291
:020D0F00005290
:020D100000538E
:020D110000538D
:020D120000538C
:020D130000538B
:020D140000538A
:020D1500005389
:020D1600005388
:020D1700005288
:020D1800005287
:020D1900005286
:020D1A00005384
:020D1B00005383
:020D1C00005382
:020D1D00005282
:020D1E00004A89
:020D1F000009C9
:020D2000000AC7
:020D2100000AC6
:020D2200000AC5
:020D2300000AC4
:020D2400000AC3
:020D2500000AC2
:020D2600000AC1
:020D2700000AC0
:020D2800000ABF
:020D2900000ABE
:020D2A00000ABD
:020D2B00000ABC
:020D2C00000ABB
:020D2D00000ABA
:020D2E00000AB9
:020D2F00000AB8
:020D3000000AB7
:020D3100000AB6
:020D3200000AB5
:020D3300000AB4
:020D3400000AB3
:020D35000012AA
:020D36000012A9
:020D37000012A8
:020D38000012A7
:020D39000012A6
:020D3A000012A5
:020D3B000012A4
:020D3C000012A3
:020D3D000012A2
:020D3E000012A1
:020D3F000012A0
:020D400000129F
:020D410000129E
:020D420000129D
:020D4300000AA4
:020D4400000AA3
:020D4500000AA2
:020D4600001299
:020D4700001397
:020D4800001297
:020D4900001395
:020D4A00001394
:020D4B00001393
:020D4C00005C49
:020D4D00005C48
:020D4E00005C47
:020D4F0000653D
:020D500000653C
:020D5100006E32
:020D520000AEF1
:020D530000B7E7
:020D540000B7E6
:020D550000AEEE
:020D5600005348
:020D5700005248
:020D5800005247
:020D5900000A8E
:020D5A00005245
:020D5B00005343
:020D5C00005342
:020D5D00005341
:020D5E00005340
:020D5F0000533F
:020D600000523F
:020D610000523E
:020D6200000986
:020D6300000985
:020D6400004A43
:020D650000523A
:020D6600005239
:020D6700005238
:020D6800005237
:020D6900005335
:020D6A00005334
:020D6B00005234
:020D6C00000A7B
:020D6D00001272
:020D6E00001271
:020D6F00001270
:020D700000126F
:020D7100000A76
:020D720000126D
:020D730000522C
:020D740000532A
:020D7500005329
:020D7600005328
:020D7700005327
:020D7800005326
:020D7900005325
:020D7A00005324
:020D7B00005323
:020D7C00005322
:020D7D00005321
:020D7E00005320
:020D7F0000531F
:020D800000531E
:020D810000531D
:020D820000521D
:020D830000521C
:020D840000521B
:020D8500005B11
:020D8600005B10
:020D8700005B0F
:020D8800005B0E
:020D890000A4C4
:020D8A0000A4C3
:020D8B0000ADB9
:020D8C0000ADB8
:020D8D0000A4C0
:020D8E00005B08
:020D8F0000530F
:020D900000530E
:020D910000530D
:020D9200005B04
:020D9300005B03
:020D940000A4B9
:020D950000A4B8
:020D960000A4B7
:020D9700005BFF
:020D9800005207
:020D9900005206
:020D9A00005304
:020D9B00005303
:020D9C00005302
:020D9D00005301
:020D9E00005300
:020D9F000053FF
:020DA0000053FE
:020DA1000053FD
:020DA2000053FC
:020DA3000053FB
:020DA4000053FA
:020DA5000053F9
:020DA6000053F8
:020DA7000053F7
:020DA8000053F6
:020DA9000053F5
:020DAA000053F4
:020DAB000053F3
:020DAC000052F3
:020DAD000052F2
:020DAE000052F1
:020DAF000053EF
:020DB0000053EE
:020DB1000053ED
:020DB2000053EC
:020DB3000053EB
:020DB4000053EA
:020DB5000053E9
:020DB6000053E8
:020DB7000052E8
:020DB8000052E7
:020DB9000052E6
:020DBA000052E5
:020DBB000052E4
:020DBC000053E2
:020DBD000052E2
:020DBE00004AE9
:020DBF00000929
:020DC000000A27
:020DC100000A26
:020DC200000A25
:020DC300000A24
:020DC400000A23
:020DC500000A22
:020DC600000A21
:020DC700000A20
:020DC800000A1F
:020DC900000A1E
:020DCA00000A1D
:020DCB00000A1C
:020DCC00000A1B
:020DCD00000A1A
:020DCE00000A19
:020DCF00000A18
:020DD000000A17
:020DD100000A16
:020DD200000A15
:020DD300000A14
:020DD400000A13
:020DD500000A12
:020DD600000A11
:020DD700000A10
:020DD800000A0F
:020DD900000A0E
:020DDA00000A0D
:020DDB00000A0C
:020DDC00000A0B
:020DDD00000A0A
:020DDE00000A09
:020DDF00000A08
:020DE000000A07
:020DE100000A06
:020DE2000012FD
:020DE3000012FC
:020DE4000012FB
:020DE500000A02
:020DE600000A01
:020DE700000A00
:020DE800000AFF
:020DE900000AFE
:020DEA00000AFD
:020DEB00000AFC
:020DEC00000AFB
:020DED00000AFA
:020DEE00000AF9
:020DEF00000AF8
:020DF000000AF7
:020DF100000AF6
:020DF200005CA3
:020DF30000B747
:020DF40000BF3E
:020DF50000AE4E
:020DF600005BA0
:020DF7000053A7
:020DF8000052A7
:020DF900004AAE
:020DFA000052A5
:020DFB000052A4
:020DFC000053A2
:020DFD000053A1
:020DFE000053A0
:020DFF0000539F
:020E000000529E
:020E010000529D
:020E02000009E5
:020E03000009E4
:020E0400004AA2
:020E0500005299
:020E0600005298
:020E0700005297
:020E0800005296
:020E0900005394
:020E0A00005393
:020E0B00005293
:020E0C00000ADA
:020E0D000012D1
:020E0E000012D0
:020E0F000012CF
:020E10000012CE
:020E1100000AD5
:020E12000012CC
:020E130000528B
:020E1400005389
:020E1500005388
:020E1600005387
:020E1700005386
:020E1800005385
:020E1900005384
:020E1A00005383
:020E1B00005382
:020E1C00005381
:020E1D00005380
:020E1E0000537F
:020E1F0000537E
:020E200000537D
:020E210000537C
:020E220000527C
:020E2300004A83
:020E240000527A
:020E2500005378
:020E2600005377
:020E2700005376
:020E2800005B6D
:020E2900005C6B
:020E2A00006462
:020E2B0000AD18
:020E2C0000AD17
:020E2D0000A51E
:020E2E00005B67
:020E2F0000536E
:020E300000536D
:020E310000536C
:020E3200005B63
:020E3300005B62
:020E3400005C60
:020E350000A417
:020E360000AD0D
:020E370000A415
:020E3800005B5D
:020E3900005364
:020E3A00005363
:020E3B00005362
:020E3C00005361
:020E3D00005360
:020E3E0000535F
:020E3F0000535E
:020E400000535D
:020E410000535C
:020E420000535B
:020E430000535A
:020E4400005359
:020E4500005358
:020E4600005357
:020E4700005356
:020E4800005355
:020E4900005354
:020E4A00005353
:020E4B00005253
:020E4C00005252
:020E4D00005251
:020E4E0000534F
:020E4F0000534E
:020E500000534D
:020E510000534C
:020E520000534B
:020E530000534A
:020E5400005349
:020E5500005348
:020E5600005347
:020E5700005247
:020E5800005246
:020E5900005245
:020E5A00005343
:020E5B00005342
:020E5C00005341
:020E5D00005241
:020E5E00004A48
:020E5F00000988
:020E6000000A86
:020E6100000A85
:020E6200000A84
:020E6300000A83
:020E6400000A82
:020E6500000A81
:020E6600000A80
:020E6700000A7F
:020E6800000A7E
:020E6900000A7D
:020E6A00000A7C
:020E6B00000A7B
:020E6C00000A7A
:020E6D00000A79
:020E6E00000A78
:020E6F00000A77
:020E7000000A76
:020E7100000A75
:020E7200000A74
:020E7300000A73
:020E7400000A72
:020E7500000A71
:020E7600000A70
:020E7700000A6F
:020E7800000A6E
:020E7900000A6D
:020E7A00000A6C
:020E7B00000A6B
:020E7C00000A6A
:020E7D00000A69
:020E7E00000A68
:020E7F00000A67
:020E8000000A66
:020E8100000A65
:020E8200000A64
:020E8300000A63
:020E8400000A62
:020E8500000A61
:020E8600000A60
:020E8700000A5F
:020E8800000A5E
:020E8900000A5D
:020E8A00000A5C
:020E8B00000A5B
:020E8C00000A5A
:020E8D00000A59
:020E8E00000A58
:020E8F00000A57
:020E9000000A56
:020E9100000A55
:020E9200005B03
:020E930000AFAE
:020E940000BF9D
:020E950000AEAD
:020E9600005CFE
:020E9700005306
:020E9800005305
:020E9900005205
:020E9A00004A0C
:020E9B00005203
:020E9C00005301
:020E9D00005300
:020E9E000053FF
:020E9F000053FE
:020EA0000052FE
:020EA1000052FD
:020EA200000945
:020EA300000944
:020EA400004A02
:020EA5000052F9
:020EA6000052F8
:020EA7000052F7
:020EA8000052F6
:020EA9000053F4
:020EAA000053F3
:020EAB000052F3
:020EAC00000A3A
:020EAD00001231
:020EAE00001230
:020EAF0000122F
:020EB00000122E
:020EB100000A35
:020EB20000122C
:020EB3000052EB
:020EB4000053E9
:020EB5000053E8
:020EB6000053E7
:020EB7000053E6
:020EB8000053E5
:020EB9000053E4
:020EBA000053E3
:020EBB000053E2
:020EBC000053E1
:020EBD000053E0
:020EBE000053DF
:020EBF000053DE
:020EC0000053DD
:020EC1000052DD
:020EC2000052DC
:020EC300004AE3
:020EC4000052DA
:020EC5000053D8
:020EC6000052D8
:020EC7000052D7
:020EC8000053D5
:020EC900005BCC
:020ECA000064C2
:020ECB000064C1
:020ECC0000AD77
:020ECD0000A57E
:020ECE00005BC7
:020ECF000052CF
:020ED0000053CD
:020ED1000052CD
:020ED2000053CB
:020ED300005BC2
:020ED400005BC1
:020ED50000A477
:020ED60000A575
:020ED70000A475
:020ED800005BBD
:020ED9000053C4
:020EDA000053C3
:020EDB000053C2
:020EDC000053C1
:020EDD000053C0
:020EDE000053BF
:020EDF000053BE
:020EE0000053BD
:020EE1000053BC
:020EE2000053BB
:020EE3000053BA
:020EE4000053B9
:020EE5000053B8
:020EE6000053B7
:020EE7000053B6
:020EE8000053B5
:020EE9000052B5
:020EEA000052B4
:020EEB000052B3
:020EEC000052B2
:020EED000053B0
:020EEE000053AF
:020EEF000053AE
:020EF0000053AD
:020EF1000053AC
:020EF2000053AB
:020EF3000053AA
:020EF4000053A9
:020EF5000053A8
:020EF6000053A7
:020EF7000052A7
:020EF8000052A6
:020EF9000052A5
:020EFA000053A3
:020EFB000053A2
:020EFC000053A1
:020EFD000052A1
:020EFE00004AA8
:020EFF00000AE7
:020F0000000AE5
:020F0100000AE4
:020F0200000AE3
:020F0300000AE2
:020F0400000AE1
:020F0500000AE0
:020F0600000ADF
:020F0700000ADE
:020F0800000ADD
:020F0900000ADC
:020F0A00000ADB
:020F0B00000ADA
:020F0C00000AD9
:020F0D00000AD8
:020F0E00000AD7
:020F0F00000AD6
:020F1000000AD5
:020F1100000AD4
:020F1200000AD3
:020F1300000AD2
:020F1400000AD1
:020F1500000AD0
:020F1600000ACF
:020F1700000ACE
:020F1800000ACD
:020F1900000ACC
:020F1A00000ACB
:020F1B00000ACA
:020F1C00000AC9
:020F1D00000AC8
:020F1E00000AC7
:020F1F00000AC6
:020F2000000AC5
:020F2100000AC4
:020F2200000AC3
:020F2300000AC2
:020F2400000AC1
:020F2500000AC0
:020F2600000ABF
:020F2700000ABE
:020F28000009BE
:020F29000009BD
:020F2A000009BC
:020F2B000009BB
:020F2C00000AB9
:020F2D00000AB8
:020F2E00000AB7
:020F2F00000AB6
:020F3000000AB5
:020F3100000AB4
:020F32000013AA
:020F330000AE0E
:020F340000BFFC
:020F350000B703
:020F3600005C5D
:020F3700005365
:020F3800005364
:020F3900005363
:020F3A00005263
:020F3B00005262
:020F3C00005261
:020F3D0000535F
:020F3E0000535E
:020F3F0000535D
:020F400000525D
:020F410000525C
:020F42000009A4
:020F43000009A3
:020F4400004A61
:020F4500005258
:020F4600005257
:020F4700005256
:020F4800005255
:020F4900005254
:020F4A00005253
:020F4B00005252
:020F4C00005251
:020F4D00005250
:020F4E0000524F
:020F4F0000524E
:020F500000128D
:020F510000128C
:020F520000128B
:020F5300005349
:020F5400005348
:020F5500005347
:020F5600005346
:020F5700005345
:020F5800005344
:020F5900005343
:020F5A00005342
:020F5B00005341
:020F5C00005340
:020F5D0000533F
:020F5E0000533E
:020F5F0000533D
:020F600000523D
:020F610000523C
:020F620000523B
:020F6300004A42
:020F6400005239
:020F6500005238
:020F6600005237
:020F6700005236
:020F6800005235
:020F6900005234
:020F6A00005B2A
:020F6B00005B29
:020F6C00005B28
:020F6D00005B27
:020F6E00005B26
:020F6F0000522E
:020F700000522D
:020F710000522C
:020F720000522B
:020F7300005329
:020F7400005C1F
:020F7500005C1E
:020F7600005C1D
:020F770000A4D4
:020F7800005B1C
:020F7900005323
:020F7A00005322
:020F7B00005321
:020F7C00005320
:020F7D0000531F
:020F7E0000531E
:020F7F0000531D
:020F800000531C
:020F810000531B
:020F820000531A
:020F8300005319
:020F8400005318
:020F8500005317
:020F8600005316
:020F8700005315
:020F8800005314
:020F8900005214
:020F8A00005213
:020F8B00005212
:020F8C00005310
:020F8D0000530F
:020F8E0000530E
:020F8F0000530D
:020F900000530C
:020F910000530B
:020F920000530A
:020F9300005309
:020F9400005308
:020F9500005307
:020F9600005306
:020F9700005206
:020F9800005205
:020F9900005204
:020F9A00005302
:020F9B00005301
:020F9C00005300
:020F9D00005200
:020F9E00000A47
:020F9F00000947
